:100000000C9463000C94B6050C948F050C948B0033
:100010000C948B000C9435060C948B000C948B0084
:100020000C948B000C948B000C948B000C948B0024
:100030000C948B000C948B000C948B000C948B0014
:100040000C9445050C948B000C9403060C94DD0570
:100050000C948B000C948B000C948B000C948B00F4
:100060000C948B000C948B000000000024002700EF
:100070002A0000000000250028002B0000000000DE
:1000800023002600290004040404040404040202DA
:100090000202020203030303030301020408102007
:1000A0004080010204081020010204081020000012
:1000B0000008000201000003040700000000000027
:1000C0000000A306520911241FBECFEFD8E0DEBF07
:1000D000CDBF11E0A0E0B1E0ECE3F5E102C0059096
:1000E0000D92A83BB107D9F723E0A8EBB1E001C01E
:1000F0001D92AA34B207E1F710E0C2E6D0E004C0D6
:100100002197FE010E946609C136D107C9F70E94F6
:1001100026070C94910A0C940000833081F028F497
:10012000813099F08230A9F008958730A9F08830A5
:10013000C9F08430B1F4809180008F7D03C080913C
:1001400080008F7780938000089584B58F7784BD79
:10015000089584B58F7DFBCF8091B0008F77809319
:10016000B00008958091B0008F7DF9CFCF93DF93D9
:10017000282F30E0F901E255FF4F8491F901E6564E
:10018000FF4FD491F901EA57FF4FC491CC23A1F05E
:1001900081110E948D00EC2FF0E0EE0FFF1FE4585C
:1001A000FF4FA591B491EC91ED2381E090E009F42B
:1001B00080E0DF91CF91089580E090E0FACF1F9327
:1001C000CF93DF93282F30E0F901E255FF4F849160
:1001D000F901E656FF4FD491F901EA57FF4FC49158
:1001E000CC23A9F0162F81110E948D00EC2FF0E096
:1001F000EE0FFF1FEE58FF4FA591B4918FB7F89403
:10020000EC91111108C0D095DE23DC938FBFDF91F4
:10021000CF911F910895DE2BF8CFCF93DF9390E01D
:10022000FC01E656FF4F24918A579F4FFC018491B1
:100230008823C9F090E0880F991FFC01E859FF4F0F
:10024000A591B491FC01EE58FF4FC591D491611175
:100250000DC09FB7F8948C91209582238C93888150
:10026000282328839FBFDF91CF910895623051F4F6
:100270009FB7F8943C91822F809583238C93E881DB
:100280002E2BEFCF8FB7F894EC912E2B2C938FBFA2
:10029000EACF3FB7F8948091CE019091CF01A09121
:1002A000D001B091D10126B5A89B05C02F3F19F010
:1002B0000196A11DB11D3FBFBA2FA92F982F8827E6
:1002C000BC01CD01620F711D811D911D42E0660FC1
:1002D000771F881F991F4A95D1F708958F929F9293
:1002E000AF92BF92CF92DF92EF92FF924B015C01EF
:1002F0000E9449016B017C010E9449016C197D0932
:100300008E099F09683E734081059105A8F321E09D
:10031000821A9108A108B10888EEC80E83E0D81EA1
:10032000E11CF11C81149104A104B10429F7FF9090
:10033000EF90DF90CF90BF90AF909F908F900895F7
:100340002FB7F8946091CA017091CB018091CC01D4
:100350009091CD012FBF089508950895AF92BF9257
:10036000CF92DF92EF92FF920F931F93CF93DF9381
:100370006C017B018B01040F151FEB015E01AE18B0
:10038000BF08C017D10759F06991D601ED91FC91D2
:100390000190F081E02DC6010995892B79F7C501FF
:1003A000DF91CF911F910F91FF90EF90DF90CF9051
:1003B000BF90AF900895FC01538D448D252F30E000
:1003C000842F90E0821B930B541710F0CF96089562
:1003D00001970895FC01918D828D981761F0A28D8F
:1003E000AE0FBF2FB11D5D968C91928D9F5F9F7355
:1003F000928F90E008958FEF9FEF0895FC01918D0B
:10040000828D981731F0828DE80FF11D858D90E077
:1004100008958FEF9FEF0895FC01918D228D892F14
:1004200090E0805C9F4F821B91098F7399270895FC
:1004300082ED91E00E940C0221E0892B09F420E07A
:10044000822F089580E090E0892B29F00E94180205
:1004500081110C9400000895FC01A48DA80FB92F00
:10046000B11DA35ABF4F2C91848D90E001968F73DC
:100470009927848FA689B7892C93A089B1898C91FB
:10048000837080648C93938D848D981306C002884A
:10049000F389E02D80818F7D80830895EF92FF9214
:1004A0000F931F93CF93DF93EC0181E0888F9B8D97
:1004B0008C8D98131AC0E889F989808185FF15C051
:1004C0009FB7F894EE89FF896083E889F989808174
:1004D0008370806480839FBF81E090E0DF91CF9143
:1004E0001F910F91FF90EF900895F62E0B8D10E065
:1004F0000F5F1F4F0F731127E02E8C8D8E110CC0D4
:100500000FB607FCFACFE889F989808185FFF5CF1E
:10051000CE010E942C02F1CFEB8DEC0FFD2FF11DCF
:10052000E35AFF4FF0829FB7F8940B8FEA89FB895B
:1005300080818062CFCFCF93DF93EC01888D8823B9
:10054000B9F0AA89BB89E889F9898C9185FD03C036
:10055000808186FD0DC00FB607FCF7CF8C9185FF1B
:10056000F2CF808185FFEDCFCE010E942C02E9CF32
:10057000DF91CF910895EF92FF921F93CF93DF9376
:10058000EC018A819A819E7F9A839A819D7F9A83CA
:10059000182F117080FF13C0EF8DF8A1309779F0FC
:1005A000ADA1BEA11496ED90FC9015971596DC9325
:1005B000CE9314970995EDA1FEA1F582E482812FD7
:1005C000DF91CF911F91FF90EF900895CF93DF932C
:1005D000109239038091320390913303009741F0D8
:1005E000FC01D3A1C4A10E94BB028D2F9C2FF6CF8A
:1005F00081E080933903DF91CF9108950F931F938A
:10060000CF93DF93FC01A5A1B6A1109709F448C0D0
:10061000EC01178A108E118E128E82818B7F82835D
:10062000058CF68DE02D3097B9F18A8181FD34C0BB
:1006300014960D911C9115971596DC93CE931497F3
:100640008A8182608A8309959A8180FB90F99A83D6
:100650008A818D7F8A83EDA1FEA1158304838B811E
:100660009C81AD81BE818F839887A987BA870E94BC
:10067000A0010F81188529853A85601B710B820BBB
:10068000930B6B877C878D879E878A818170DF9132
:10069000CF911F910F9108958A8181608A83DFCF66
:1006A00080E0F5CFCF93DF9310923903C0913203EE
:1006B000D0913303209739F0CE010E94FE020BA0A7
:1006C000DCA1C02DF7CF81E080933903DF91CF917A
:1006D0000895CF92DF92EF92FF92CF93DF93EC01D8
:1006E0006A017B010E94FE02CF82D886E986FA86E3
:1006F0000E94A0016B877C878D879E878A8181708D
:10070000DF91CF91FF90EF90DF90CF900895CF933E
:10071000DF93EC018EE191E0998388838A8180FFE9
:1007200003C0CE010E94BB02EDA1FEA1309789F06B
:1007300017821EA21DA2A9A1BAA18BA19CA11097EC
:1007400099F4009749F4118210821382128281E099
:100750008783DF91CF910895DC0192961C921E92BF
:10076000919791838083F3CF009739F494961C92EC
:100770001E929397B383A283EACF94969C938E9311
:1007800093970BA0DCA1C02DBAA3A9A3E0CFCF9370
:10079000DF93EC018EE191E0998388838A818E7FDB
:1007A0008A838A818D7F8A838A818B7F8A831B8655
:1007B0001C861D861E861B821C821D821E821F8235
:1007C000188619861A861AA219A21CA21BA21EA29A
:1007D0001DA21F8A188E198E1A8E7C8F6B8F1E8E0B
:1007E0001D8E18A21F8E80E797E1A0E0B0E08B83FA
:1007F0009C83AD83BE838B819C81AD81BE818F83C1
:100800009887A987BA870E94A0016B877C878D870C
:100810009E878FEF9FEFDC018F87988BA98BBA8B18
:100820008B8B9C8BAD8BBE8B8DA19EA1892BD9F41C
:100830001092390382E393E09EA38DA3809132034B
:1008400090913303892B91F4D0933303C0933203F7
:100850001AA219A21CA21BA2D0933503C093340381
:1008600081E080933903DF91CF910895E0913403C3
:10087000F0913503FAA3E9A3D4A3C3A3EBCF61E0BE
:100880008BE00E940D0160E08BE00E94DF0061E0E0
:100890008AE00E940D0161E08AE00E94DF0061E0D1
:1008A00089E00E940D0160E089E00E94DF0064EFB2
:1008B00071E080E090E00E946E0161E08AE00E94B9
:1008C0000D0160E08AE00C94DF000C943F04CF93AC
:1008D000DF93C3E0D0E061E089E00E940D0160E0B9
:1008E00089E00E94DF006AEF70E080E090E00E9403
:1008F0006E0161E089E00E940D0161E089E00E94E3
:10090000DF006AEF70E080E090E00E946E012197C6
:1009100011F761E089E00E940D0160E089E0DF915C
:10092000CF910C94DF0061E08BE00E940D0160E04C
:100930008BE00E94DF0061E08AE00E940D0160E030
:100940008AE00E94DF0061E089E00E940D0161E021
:1009500089E00E94DF0060ED77E080E090E00E9497
:100960006E0161E089E00E940D0160E089E00C9475
:10097000DF0061E08BE00E940D0161E08BE00E94EE
:10098000DF0061E08AE00E940D0160E08AE00E94E1
:10099000DF0061E089E00E940D0160E089E00E94D3
:1009A000DF0060ED77E080E090E00E946E0161E0A2
:1009B0008BE00E940D0160E08BE00C94DF00CF9390
:1009C000DF93FC0101900020E9F73197AF01481B4C
:1009D000590BBC0182ED91E00E94AE01EC0142E0B6
:1009E00050E064E371E082ED91E00E94AE018C0F73
:1009F0009D1FDF91CF91089584E00E94B600892B5E
:100A000049F481E08093C6010E94E60287E391E009
:100A10000C94DF041092C6010E9452038AE491E014
:100A2000F7CF83E00E94B600892B49F481E08093E0
:100A3000C7010E94E6028EE591E00C94DF0410925B
:100A4000C7010E94520383E791E0F7CF82E00E9442
:100A5000B600892B49F481E08093C8010E94E60228
:100A600089E891E00C94DF041092C8010E945203BF
:100A700080EA91E0F7CFCF93DF93EC010E948703E8
:100A8000CE01DF91CF910C94080A1F920F920FB6FE
:100A90000F9211242F933F938F939F93AF93BF9304
:100AA0008091CA019091CB01A091CC01B091CD0170
:100AB0003091C90123E0230F2D3758F50196A11D70
:100AC000B11D2093C9018093CA019093CB01A093DB
:100AD000CC01B093CD018091CE019091CF01A09136
:100AE000D001B091D1010196A11DB11D8093CE011D
:100AF0009093CF01A093D001B093D101BF91AF915A
:100B00009F918F913F912F910F900FBE0F901F904B
:100B1000189526E8230F0296A11DB11DD2CF1F9272
:100B20000F920FB60F9211242F933F934F935F9321
:100B30006F937F938F939F93AF93BF93EF93FF93A5
:100B4000E0911001F09111010995FF91EF91BF9192
:100B5000AF919F918F917F916F915F914F913F9155
:100B60002F910F900FBE0F901F9018951F920F920C
:100B70000FB60F9211242F933F934F935F936F9370
:100B80007F938F939F93AF93BF93EF93FF93E091E6
:100B90000E01F0910F010995FF91EF91BF91AF9177
:100BA0009F918F917F916F915F914F913F912F9185
:100BB0000F900FBE0F901F9018951F920F920FB6B7
:100BC0000F9211242F933F934F935F936F937F93D3
:100BD0008F939F93AF93BF93EF93FF9382ED91E039
:100BE0000E942C02FF91EF91BF91AF919F918F9145
:100BF0007F916F915F914F913F912F910F900FBE19
:100C00000F901F9018951F920F920FB60F921124FC
:100C10002F938F939F93EF93FF93E091E201F091D5
:100C2000E3018081E091E801F091E90182FD1BC0C0
:100C300090818091EB018F5F8F732091EC0182177F
:100C400041F0E091EB01F0E0EE52FE4F958F809382
:100C5000EB01FF91EF919F918F912F910F900FBE1C
:100C60000F901F9018958081F4CF1F920F920FB6AE
:100C70000F9211242F933F934F935F936F937F9322
:100C80008F939F93AF93BF93CF93EF93FF9399B1BC
:100C90008091BA01C091C001C923282F2095C22399
:100CA0002091BD018223292F20958223C82B909368
:100CB000BA01C4FF05C0E0911201F091130109953A
:100CC000C5FF05C0E0910001F09101010995C6FF43
:100CD00005C0E0910201F09103010995C7FF05C02D
:100CE000E0910401F09105010995C0FF05C0E09174
:100CF0000601F09107010995C1FF05C0E0910801C7
:100D0000F09109010995C2FF05C0E0910A01F09137
:100D10000B010995C3FF05C0E0910C01F0910D0195
:100D20000995FF91EF91CF91BF91AF919F918F91D5
:100D30007F916F915F914F913F912F910F900FBED7
:100D40000F901F9018951092D5011092D40188EE43
:100D500093E0A0E0B0E08093D6019093D701A093F8
:100D6000D801B093D90186E291E09093D3018093AA
:100D7000D20185EC90E09093DF018093DE0184EC5A
:100D800090E09093E1018093E00180EC90E09093FB
:100D9000E3018093E20181EC90E09093E501809380
:100DA000E40182EC90E09093E7018093E60186EC09
:100DB00090E09093E9018093E8011092EB0110928A
:100DC000EC011092ED011092EE0180E480937C0022
:100DD00080917A00806480937A0080917A0086FD09
:100DE000FCCF809178009091790010923903109295
:100DF0003303109232031092350310923403109291
:100E00003703109236031092380381E08093390340
:100E100069EB74E08BE093E00E94C70365E674E041
:100E200084EE92E00E94C70363E974E08DEB92E0E8
:100E30000E94C70367E674E086E992E00E94C70358
:100E40006FE374E08FE692E00C94C703789484B566
:100E5000826084BD84B5816084BD85B5826085BDB6
:100E600085B5816085BD80916E00816080936E0044
:100E70001092810080918100826080938100809136
:100E800081008160809381008091800081608093E7
:100E900080008091B10084608093B1008091B000A7
:100EA00081608093B00080917A00846080937A00A2
:100EB00080917A00826080937A0080917A008160CC
:100EC00080937A0080917A00806880937A001092F3
:100ED000C100E091E201F091E30182E08083E091C2
:100EE000DE01F091DF011082E091E001F091E1017B
:100EF0008FEC80831092EA01E091E601F091E70126
:100F000086E08083E091E401F091E50180818061D9
:100F10008083E091E401F091E50180818860808325
:100F2000E091E401F091E501808180688083E091A7
:100F3000E401F091E50180818F7D808361E08BE0A9
:100F40000E940D0161E08AE00E940D0161E089E0EC
:100F50000E940D0162E082E00E940D0162E083E0E8
:100F60000E940D0162E084E00E940D0160E08EE0CD
:100F70000E940D0186E295E090930F0180930E018F
:100F8000809169008C7F816080936900E89A81E19B
:100F900095E0909311018093100180916900837F07
:100FA000846080936900E99A8CEF94E09093130138
:100FB000809312018091C00180618093C001809173
:100FC000BD0180618093BD0189B18093BA01809198
:100FD0006D00806180936D008091680084608093D3
:100FE000680041E050E060E070E08BE093E00E9438
:100FF000690340ED57E060E070E084EE92E00E940B
:10100000690344EC59E060E070E08DEB92E00E94EF
:10101000690344E951E160E070E086E992E00E94F2
:1010200069034CE755E160E070E08FE692E00E94D2
:101030006903FF24F39400E010E08091C80161E0AF
:10104000811109C08091C701882311F161E08BE013
:101050000E940D0160E08BE00E94DF0061E08AE009
:101060000E940D0160E08AE00E94DF0061E089E0FB
:101070000E940D0160E089E00E94DF00011511056A
:10108000E1F20E9418028823C1F20E940000D5CF2D
:101090008091C601882381F10E94A0018090C20145
:1010A0009090C301A090C401B090C5019B01AC0118
:1010B000281939094A095B0949015A013CE283169A
:1010C00031E09306A104B104C8F26093C2017093A9
:1010D000C3018093C4019093C501C091C101CF2584
:1010E000C093C1016C2F8BE00E94DF006C2F8AE05F
:1010F0000E94DF006C2FBFCF8091320390913303A9
:10110000909337038093360310923A0310923B0377
:1011100010923C0310923D0310923E0310923F0345
:101120001092400310924103109242031092430325
:10113000109244031092450380913903882309F4E7
:101140009DCF80913803811199CFE0913603F091C2
:101150003703309709F492CF80913E0390913F037B
:10116000A0914003B09141030196A11DB11D809350
:101170003E0390933F03A0934003B0934103C3A168
:10118000D4A1828180FF1EC080913A0390913B03DD
:10119000A0913C03B0913D030196A11DB11D809328
:1011A0003A0390933B03A0933C03B0933D038785A0
:1011B0009089A189B289892B8A2B8B2B41F4CF018D
:1011C0000E94BB02D0933703C0933603BACF0E946C
:1011D000A001E0913603F0913703238134814581EA
:1011E0005681438454846584768487809084A18466
:1011F000B284DC01CB0184199509A609B7098815C9
:101200009905AA05BB05F0F287859089A189B28965
:10121000181619061A061B065CF487859089A189A1
:10122000B2890197A109B1098787908BA18BB28BF5
:101230008789908DA18DB28D0196A11DB11D878BDF
:10124000908FA18FB28F83859485A585B685878081
:101250009084A184B284880D991DAA1DBB1D83872B
:101260009487A587B6872783308741875287038C69
:10127000F48DE02D309709F4A5CF099580914203B4
:1012800090914303A0914403B09145030196A11DA1
:10129000B11D8093420390934303A0934403B09302
:1012A000450390CF8FE692E00E94870386E992E0A3
:1012B0000E9487038DEB92E00E94870384EE92E008
:1012C0000E9487038BE093E00C948703EE0FFF1FCF
:1012D0000590F491E02D09940F931F93CF93DF9322
:1012E0008230910510F482E090E0E0914803F091A3
:1012F000490330E020E0B0E0A0E0309799F42115F8
:10130000310509F44AC0281B390B24303105D8F5C2
:101310008A819B816115710589F1FB019383828329
:10132000FE0111C040815181028113814817590784
:10133000E0F04817590799F4109761F012960C9352
:10134000129713961C933296CF01DF91CF911F9184
:101350000F9108950093480310934903F4CF21158A
:10136000310551F04217530738F0A901DB019A010A
:10137000BD01DF01F801C1CFEF01F9CF909349031F
:1013800080934803CDCFFE01E20FF31F8193919329
:101390002250310939832883D7CF209146033091D9
:1013A0004703232B41F4209116013091170130930C
:1013B0004703209346032091140130911501211514
:1013C000310541F42DB73EB74091180150911901F4
:1013D000241B350BE0914603F0914703E217F30716
:1013E000A0F42E1B3F0B2817390778F0AC014E5F95
:1013F0005F4F2417350748F04E0F5F1F5093470388
:1014000040934603819391939FCFF0E0E0E09CCF1F
:10141000CF93DF930097E9F0FC0132971382128299
:10142000A0914803B0914903ED0130E020E010970E
:10143000A1F420813181820F931F209146033091C6
:1014400047032817390709F061C0F0934703E09379
:101450004603DF91CF910895EA01CE17DF07E8F543
:101460004A815B819E0141155105B1F7E901FB837A
:10147000EA8349915991C40FD51FEC17FD0761F418
:10148000808191810296840F951FE9019983888359
:10149000828193819B838A83F0E0E0E012968D91B4
:1014A0009C9113970097B9F52D913C911197CD011F
:1014B0000296820F931F209146033091470328170D
:1014C000390739F6309751F51092490310924803C5
:1014D000B0934703A0934603BCCFD383C28340811C
:1014E0005181840F951FC817D90761F44E5F5F4F74
:1014F00088819981480F591F518340838A819B813C
:10150000938382832115310509F0B0CFF09349030D
:10151000E09348039ECFFD01DC01C0CF138212820D
:10152000D7CF10E0C2E6D0E004C0FE010E946609F9
:0C1530002196C336D107C9F7F894FFCF0D
:10153C00AC01AC01AC01AC01AC01AC01AC01AD0136
:10154C00AD01AC0100004A038000000000008703DD
:10155C003B05000000004E02AE01DB019B020C02B9
:10156C00EA01FE010D0A00426C696E6B204D6F643E
:10157C006520456E61626C656400426C696E6B201F
:10158C004D6F64652044697361626C6564004361EE
:10159C007574696F6E204D6F646520456E61626C69
:1015AC0065640043617574696F6E204D6F646520CE
:1015BC0044697361626C656400456D657267656E44
:1015CC006379204D6F646520456E61626C656400C3
:1015DC00456D657267656E6379204D6F6465204457
:0815EC00697361626C65640023
:00000001FF
